:100000000C9462000C948A000C948A000C948A0070
:100010000C948A000C948A000C948A000C948A0038
:100020000C948A000C948A000C948A000C948A0028
:100030000C948A000C948A000C948A000C948A0018
:100040000C94AF020C948A000C947D020C9457021D
:100050000C948A000C948A000C948A000C948A00F8
:100060000C948A000C948A000000000024002700F1
:100070002A0000000000250028002B0000000008D6
:10008000000201000003040700000000000000005F
:1000900000000000230026002900040404040404D6
:1000A0000404020202020202030303030303010227
:1000B00004081020408001020408102001020408F6
:1000C0001020940411241FBECFEFD8E0DEBFCDBFB7
:1000D00011E0A0E0B1E0E2E5FAE002C005900D9287
:1000E000A232B107D9F721E0A2E2B1E001C01D922E
:1000F000A83CB207E1F710E0C2E6D0E004C02197C7
:10010000FE010E940D05C136D107C9F70E943E03CA
:100110000C9427050C940000CF92DF92EF92FF928F
:100120000F931F93CF93DF936C017A018B01C0E093
:10013000D0E0CE15DF0589F0D8016D918D01D60193
:10014000ED91FC910190F081E02DC6010995892B7C
:1001500011F47E0102C02196ECCFC701DF91CF914F
:100160001F910F91FF90EF90DF90CF900895089529
:1001700080E090E00895FC01538D448D252F30E000
:10018000842F90E0821B930B541710F0CF960895A4
:1001900001970895FC01918D828D981761F0828DF1
:1001A000DF01A80FB11D5D968C91928D9F5F9F73AB
:1001B000928F90E008958FEF9FEF0895FC01918D4D
:1001C000828D981731F0828DE80FF11D858D90E0BA
:1001D00008958FEF9FEF0895FC01918D228D892F57
:1001E00090E0805C9F4F821B91098F73992708953F
:1001F0008BE291E00E94EC0021E0892B09F420E0E1
:10020000822F0895FC01848DDF01A80FB11DA35A30
:10021000BF4F2C91848D90E001968F739927848F26
:10022000A689B7892C93A089B1898C9180648C931D
:10023000938D848D981306C00288F389E02D808108
:100240008F7D80830895EF92FF920F931F93CF933A
:10025000DF93EC0181E0888F9B8D8C8D981305C016
:10026000E889F989808185FD24C0F62E0B8D10E088
:100270000F5F1F4F0F731127E02E8C8DE8120CC0FB
:100280000FB607FCFACFE889F989808185FFF5CFA1
:10029000CE010E940201F1CF8B8DFE01E80FF11D0E
:1002A000E35AFF4FF0820B8FEA89FB8980818062DD
:1002B00007C0EE89FF896083E889F98980818064BD
:1002C000808381E090E0DF91CF911F910F91FF90AB
:1002D000EF900895CF93DF93EC01888D8823C9F0C8
:1002E000EA89FB89808185FD05C0A889B9898C913F
:1002F00086FD0FC00FB607FCF5CF808185FFF2CFDA
:10030000A889B9898C9185FFEDCFCE010E940201A9
:10031000E7CFDF91CF91089580E090E0892B29F01D
:100320000E94F80081110C940000089590E0FC01F7
:10033000E458FF4F3491FC01E255FF4F2491FC013A
:10034000E656FF4FE491EE2309F43BC0332339F125
:10035000333091F038F43130A9F0323001F584B502
:100360008F7D12C0373091F03830A1F03430B9F4BD
:10037000809180008F7D03C0809180008F77809373
:1003800080000DC084B58F7784BD09C08091B00016
:100390008F7703C08091B0008F7D8093B000F0E034
:1003A000EE0FFF1FEE58FF4FA591B4918FB7F89451
:1003B000EC91611103C020952E2301C02E2B2C93AC
:1003C0008FBF0895CF93DF9390E0FC01E255FF4F7C
:1003D0002491FC01E656FF4F8491882361F190E05F
:1003E000880F991FFC01E859FF4FC591D491FC017A
:1003F000EE58FF4FA591B491611109C09FB7F894D1
:100400008881209582238883EC912E230BC0623053
:1004100061F49FB7F8943881822F80958323888375
:10042000EC912E2B2C939FBF06C08FB7F894E881D8
:100430002E2B28838FBFDF91CF9108953FB7F8947B
:100440008091270190912801A0912901B0912A0162
:1004500026B5A89B05C02F3F19F00196A11DB11D1F
:100460003FBFBA2FA92F982F8827820F911DA11D5A
:10047000B11DBC01CD0142E0660F771F881F991F97
:100480004A95D1F70895009769F0FC01019000208A
:10049000E9F73197AF01481B590BBC018BE291E0A2
:1004A0000C948C0080E090E008950E9422051F9239
:1004B0000F920FB60F9211242F933F934F935F9398
:1004C0006F937F938F939F93AF93BF93EF93FF931C
:1004D0008BE291E00E940201FF91EF91BF91AF91F9
:1004E0009F918F917F916F915F914F913F912F914C
:1004F0000F900FBE0F901F9018951F920F920FB67E
:100500000F9211242F938F939F93EF93FF93E0917A
:100510003B01F0913C018081E0914101F091420169
:1005200082FD12C09081809144018F5F8F73209172
:100530004501821751F0E0914401F0E0E55DFE4F86
:10054000958F8093440101C08081FF91EF919F912D
:100550008F912F910F900FBE0F901F9018951F92A3
:100560000F920FB60F9211242F933F938F939F9367
:10057000AF93BF938091230190912401A091250115
:10058000B09126013091220123E0230F2D3720F472
:100590000196A11DB11D05C026E8230F0296A11DDD
:1005A000B11D209322018093230190932401A093F5
:1005B0002501B09326018091270190912801A091F7
:1005C0002901B0912A010196A11DB11D8093270137
:1005D00090932801A0932901B0932A01BF91AF9174
:1005E0009F918F913F912F910F900FBE0F901F9071
:1005F0001895CF92DF92EF92FF920F931F93E82FFF
:10060000F92F05C0015011092109310961F19081CB
:1006100096239417B9F305C0015011092109310936
:1006200011F1908196239413F7CFC12CD12CE12C9A
:10063000F12C0AC08FEFC81AD80AE80AF80A0C157C
:100640001D052E053F0579F080818623841791F3DF
:100650006C2D7D2D8E2D9F2D1F910F91FF90EF9072
:10066000DF90CF90089560E070E080E090E01F910F
:100670000F91FF90EF90DF90CF900895CF93DF938D
:10068000CDB7DEB7A5970FB6F894DEBF0FBECDBFCE
:10069000789484B5826084BD84B5816084BD85B55D
:1006A000826085BD85B5816085BD80916E00816069
:1006B00080936E001092810080918100826080930F
:1006C0008100809181008160809381008091800011
:1006D0008160809380008091B10084608093B1003C
:1006E0008091B00081608093B00080917A00846036
:1006F00080937A0080917A00826080937A00809162
:100700007A00816080937A0080917A00806880937B
:100710007A001092C100E0913B01F0913C0182E02F
:100720008083E0913701F09138011082E091390126
:10073000F0913A018FEC808310924301E0913F01E8
:10074000F091400186E08083E0913D01F0913E010F
:10075000808180618083E0913D01F0913E01808144
:1007600088608083E0913D01F0913E018081806846
:100770008083E0913D01F0913E0180818F7D8083F7
:1007800061E08DE00E94E20161E086E00E94E2010A
:1007900060E085E00E94E2012FE9222E20E0322E67
:1007A0003AE0432E512C612C712C60E086E00E94CF
:1007B00096018BE090E00197F1F761E086E00E94FE
:1007C000960183E290E00197F1F760E086E00E94F5
:1007D0009601E3EBF0E06491F1018491E82FF0E001
:1007E000EE0FFF1FE057FF4F8591949100E412E454
:1007F0002FE030E0462F0E94F90261157105810556
:10080000910549F0DC01CB010196A11DB11D9C01B0
:10081000AD015F7003C020E030E0A901A5E0B0E0C9
:100820000E94020524E231E040E050E00E94E3042F
:1008300082E191E02AA33BA34CA35DA30E94430263
:100840002AA13BA16901330FEE08FF08F7FE26C07D
:10085000E0912B01F0912C010190F081E02D6DE2EF
:100860008BE291E0099522273327A9012C193D0934
:100870004E095F0919A2CE0181967C01CA01B90116
:10088000A30192010E94C104605DF70162937F01A0
:10089000211531054105510589F715C0A7019601BC
:1008A00019A2CE0181967C01CA01B901A30192016E
:1008B0000E94C104605DF70162937F01211531053B
:1008C0004105510589F7C7010E9443028EE191E07D
:1008D0000E9443020E941E024B015C0188EEC82E5A
:1008E00083E0D82EE12CF12C0E941E02DC01CB010A
:1008F00088199909AA09BB09883E9340A105B10549
:1009000058F0F1E0CF1AD108E108F10828EE820E84
:1009100023E0921EA11CB11CC114D104E104F10416
:1009200019F70E948C0141CFEBE2F1E013821282B1
:1009300088EE93E0A0E0B0E084839583A683B7833C
:1009400084E091E09183808385EC90E095878487B3
:1009500084EC90E09787868780EC90E0918B808B89
:1009600081EC90E0938B828B82EC90E0958B848B72
:1009700086EC90E0978B868B118E128E138E148EE0
:100980000895A1E21A2EAA1BBB1BFD010DC0AA1FD0
:10099000BB1FEE1FFF1FA217B307E407F50720F0E8
:1009A000A21BB30BE40BF50B661F771F881F991F63
:1009B0001A9469F760957095809590959B01AC01AC
:1009C000BD01CF010895052E97FB1EF400940E94EF
:1009D000FA0457FD07D00E94C10407FC03D04EF46F
:1009E0000C94FA0450954095309521953F4F4F4F08
:1009F0005F4F089590958095709561957F4F8F4FCB
:100A00009F4F08950E941305A59F900DB49F900DD0
:100A1000A49F800D911D11240895EE0FFF1F0590D6
:100A2000F491E02D0994A29FB001B39FC001A39F50
:100A3000700D811D1124911DB29F700D811D112417
:100A4000911D089581E090E0F8940C942705F894A6
:020A5000FFCFD6
:100A52000000000023018C00BB006A01EC00CA0008
:100A6200DE0044697374616E6369613A20000D0AA5
:020A7200000082
:107E0000112484B714BE81FFF0D085E080938100F7
:107E100082E08093C00088E18093C10086E0809377
:107E2000C20080E18093C4008EE0C9D0259A86E02C
:107E300020E33CEF91E0309385002093840096BBD3
:107E4000B09BFECF1D9AA8958150A9F7CC24DD24C4
:107E500088248394B5E0AB2EA1E19A2EF3E0BF2EE7
:107E6000A2D0813461F49FD0082FAFD0023811F036
:107E7000013811F484E001C083E08DD089C08234E0
:107E800011F484E103C0853419F485E0A6D080C0E4
:107E9000853579F488D0E82EFF2485D0082F10E0AE
:107EA000102F00270E291F29000F111F8ED06801E7
:107EB0006FC0863521F484E090D080E0DECF843638
:107EC00009F040C070D06FD0082F6DD080E0C81688
:107ED00080E7D80618F4F601B7BEE895C0E0D1E017
:107EE00062D089930C17E1F7F0E0CF16F0E7DF06D8
:107EF00018F0F601B7BEE89568D007B600FCFDCFD4
:107F0000A601A0E0B1E02C9130E011968C91119780
:107F100090E0982F8827822B932B1296FA010C0160
:107F200087BEE89511244E5F5F4FF1E0A038BF0790
:107F300051F7F601A7BEE89507B600FCFDCF97BE46
:107F4000E89526C08437B1F42ED02DD0F82E2BD052
:107F50003CD0F601EF2C8F010F5F1F4F84911BD097
:107F6000EA94F801C1F70894C11CD11CFA94CF0C13
:107F7000D11C0EC0853739F428D08EE10CD085E9AC
:107F80000AD08FE07ACF813511F488E018D01DD067
:107F900080E101D065CF982F8091C00085FFFCCF94
:107FA0009093C60008958091C00087FFFCCF809118
:107FB000C00084FD01C0A8958091C6000895E0E648
:107FC000F0E098E1908380830895EDDF803219F02E
:107FD00088E0F5DFFFCF84E1DECF1F93182FE3DFCA
:107FE0001150E9F7F2DF1F91089580E0E8DFEE27F6
:047FF000FF270994CA
:027FFE00040479
:0400000300007E007B
:00000001FF
