:04000000E0EF0CF031
:08000800046ED8CF05F0E0CF33
:1000100006F00001E9CF0CF0EACF07F0E1CF08F0DD
:10002000E2CF09F0D9CF0AF0DACF0BF0F3CF12F01C
:10003000F4CF13F0FACF14F0F5CF15F0F6CF16F099
:10004000F7CF17F000C00EF001C00FF002C010F0A3
:1000500003C011F0A0A230EF00F0A1B248EF03F00E
:10006000F2A836EF00F0F2B26EEF06F09DAA3CEF78
:1000700000F09EBA46EF06F0A0AC42EF00F0A1BC43
:1000800052EF06F00EC000F00FC001F010C002F0F9
:1000900011C003F00CC0E9FF07C0EAFF078E08C0DB
:1000A000E1FF09C0E2FF0AC0D9FF0BC0DAFF12C0AE
:1000B000F3FF13C0F4FF14C0FAFF15C0F5FF16C01C
:1000C000F6FF17C0F7FF045006C0E0FF05C0D8FFD9
:1000D0001000312E300000008E0E006E18C101F0AD
:1000E00017C102F0036A015209E102C001F0026A7D
:1000F000080E005E015202E1006A08D0D89001BEED
:1001000004D0023601360006F9D7019E1200800E97
:10011000D8A202D001011C1B0101216B226B18C166
:1001200020F11C51201B1751D8B4DFD01F6F006E77
:100130001B51D8B4E3D01F5FD8B483D03EE31CC1B9
:1001400025F1258F1DC124F11EC123F1226BD8900A
:1001500025332433233322331F2FF8D720AF03D086
:100160002181E0D021911F912189010EEA6E1A0EA2
:10017000E96EEBD0219920BF0AD01FA113D02533FF
:10018000243323332233002AD8B4C7D00BD025BF61
:100190000CD0D89022372337243725370006D8B41F
:1001A000BCD0F5D7218D6DD0219D18C120F118AF9D
:1001B00002D0258FABD0259FA9D01BC11FF11BC139
:1001C00000F017511F5F18C125F1258F19C124F1C7
:1001D0001AC123F1226BD8902533243323332233E1
:1001E0001F2FF8D720AF03D021839CD021931F91DC
:1001F000218B010EEA6E1E0EE96EA7D0219B20BF57
:100200000AD01FA113D02533243323332233002AED
:10021000D8B483D00BD025BF0CD0D8902237233749
:10022000243725370006D8B478D0F5D7218F29D0C8
:10023000219F1CC120F11CAF02D0258F67D0259FC4
:1002400065D01CC125F1258F1DC124F11EC123F1EC
:1002500020AF04D0259F218565D02195226B1F9169
:10026000010EEA6E1A0EE96E70D020BF1CD018C1C4
:1002700020F11FA106D02533243323332233002A53
:100280004CE022AF0BD0232B09E1242B07E1252BD7
:1002900005E1253324332333002A3FE021BD84D7F1
:1002A00021BFC6D71CD0800E251B25AF04D03AD065
:1002B0001CC120F10AD018C120F1255306E12453B6
:1002C00004E1235302E1006A21D025BF08D0D89071
:1002D0002237233724372537002EF7D71ED020AFFB
:1002E00002D0258F13D0259F11D01BC100F01CC157
:1002F00025F11DC124F11EC123F108D017C100F062
:1003000018C125F119C124F11AC123F125C101F049
:1003100024C102F023C103F034D0006A016A026AEA
:10032000036A2FD0226B231F241F251F221F222B7D
:1003300005E1232B03E1242B01E1252B21B112D769
:1003400021B354D721B589D7B3D7EF50232705E37D
:10035000242B03E1252BD8B41F81ED52EF50242725
:1003600003E3252BD8B41F81ED52EF50EFBE01D02F
:10037000800A2527D8B01F8121B9FCD621BB3ED7E2
:1003800074D70001120001011751D8B4A5D0236F12
:100390001B51D8B4A1D0235F05E37F0E2327D8B02B
:1003A0009BD006D0810E235FD8A096D0D8B494D02D
:1003B00023C100F0016A026A036A226B18C121F1AD
:1003C000218F19C120F11AC11FF1190E236F1E517F
:1003D0001F5F0DE2010E205F0AE2215F08E2225F4B
:1003E00006E2222B212B202B1E511F2728D01D5126
:1003F000205F12E2010E215F0FE2225F0DE2222B4D
:10040000212B1D5120271E511F2719E3202B17E1F7
:10041000212B15E1222B13D01C518009215F0EE204
:10042000010E225F0BE2222B1C51800921271D5156
:100430002027E9E3212BE7E1222BE5D70380232FB7
:1004400001D00BD0D8901F37203721372237D890D2
:100450000336023601362437BAD724A106D0D89005
:10046000013202320332243302D0000635E024BFC9
:100470001ED0D8901F372037213722371E511F5FDB
:1004800007E2010E205F04E2215F02E2225F1AE32D
:100490001D51205F05E2010E215F02E2225F12E39F
:1004A0001C518009215F03E2010E225F0BE3032A46
:1004B00009E1022A07E1012A05E1002A0DE00132E3
:1004C0000232033218C123F11C51231B23AF02D087
:1004D000018E06D0019E04D0006A016A026A036A96
:1004E0000001120001011351D8B471D0006E1751F0
:1004F000D8B46DD0002604E3810E002668E204D053
:100500007F0E005E64E363E014C11BF118511B1BF6
:10051000148F188F16511A03F4CF1DF115511903BA
:10052000F4CF03F0F3CF1CF11A03F3501D27F4505E
:100530001C23000E032216511903F3501D27F450FB
:100540001C23000E026A0322022214511A03F350E4
:100550001C27F4500322000E022214511903F350F9
:100560000326F4500222000E016A012216511803DC
:10057000F3501C27F4500322000E022201221551D1
:100580001803F3500326F4500222000E01221451E6
:100590001803F3500226F4500122002A01BE05D0B0
:1005A0001C370336023601360006000E1CAF0AD097
:1005B000032A02220122015005E1025003E1035007
:1005C00001E1002A1BBF018E1BAF019E04D0006A0F
:1005D000016A026A036A0001120014C11BF10101E1
:1005E00018511B1B1BAF05D0D894D89014BFD880CE
:1005F0002FD014C11BF117C11CF113511C5F06E071
:100600001BAF26D0D850010AD86E22D018C11CF1D9
:1006100014511C5F06E01BAF1BD0D850010AD86EE6
:1006200017D019C11CF115511C5F06E01BAF10D08B
:10063000D850010AD86E0CD01AC11CF116511C5F9B
:1006400006E01BAF05D0D850010AD86E01D0D89073
:10065000000112008E0E006E01011351005E14C1E4
:1006600002F015C101F0028E005209E0D89002524A
:1006700002E1015204E002320132002EF7D714AF3A
:1006800005D0011E021E012AD8B4022A0001120060
:10069000850EB36EED0EB26ED650506ED7CF51F0C0
:1006A000CE50526ECFCF53F05450505C586E5550D0
:1006B0005158596E5650525C5A6E575053585B6E93
:1006C00059C018F158C017F107DD03C016F102C078
:1006D00015F101C014F100C013F15DC018F15CC048
:1006E00017F1FADCD89216C11AF115C119F114C12B
:1006F00018F113C117F103C01EF102C01DF101C0B2
:100700001CF100C01BF103DD03C016F102C015F19E
:1007100001C014F100C013F103C01AF102C019F1B5
:1007200001C018F100C017F101011E6B1D6B1C6B9D
:10073000800E1B6F000127DE03C0B3F002C0B2F0D1
:1007400001C0B1F000C0B0F059C05DF058C05CF01D
:1007500051C055F050C054F053C057F052C056F03D
:1007600058504426595045225A5046265B5047223D
:1007700059C018F158C017F1AFDC03C07FF002C0B8
:100780007EF001C07DF000C07CF06F6A6E6A700E72
:100790006D6E830E6C6ED8826FC01AF16EC019F147
:1007A0006DC018F16CC017F17FC01EF17EC01DF145
:1007B0007DC01CF17CC01BF1AADC03C073F002C039
:1007C00072F001C071F000C070F09A0E0101166F56
:1007D000990E156F190E146F7E0E136F73C01AF1F8
:1007E00072C019F171C018F170C017F100017ADE02
:1007F00003C016F102C015F101C014F100C013F1DD
:10080000D89203C01AF102C019F101C018F100C05A
:1008100017F187C01EF186C01DF185C01CF184C090
:100820001BF175DC03C077F002C076F001C075F0F3
:1008300000C074F0D88273C01AF172C019F171C08F
:1008400018F170C017F18BC01EF18AC01DF189C06C
:100850001CF188C01BF15BDC9A0E0101166F990E2A
:10086000156F190E146F7C0E136F03C01AF102C0BE
:1008700019F101C018F100C017F1000133DE03C007
:100880007BF002C07AF001C079F000C078F001017D
:10089000166B156B100E146F850E136F73C01AF163
:1008A00072C019F171C018F170C017F100011ADEA1
:1008B000D89277C01AF176C019F175C018F174C0DA
:1008C00017F103C01EF102C01DF101C01CF100C0F0
:1008D0001BF11DDC03C016F102C015F101C014F1BB
:1008E00000C013F1D89203C01AF102C019F101C07F
:1008F00018F100C017F17BC01EF17AC01DF179C05C
:100900001CF178C01BF103DC03C083F002C082F04D
:1009100001C081F000C080F00101166B156B7A0EEA
:10092000146F880E136F83C01AF182C019F181C051
:1009300018F180C017F1000150DE07E3836B826B72
:100940007A0E816F880E806F14D083C016F182C03A
:1009500015F181C014F180C013F101011A6B196BFC
:10096000186B176B000139DE04E3836B826B816BBC
:10097000806B83C016F182C015F181C014F180C074
:1009800013F168DE02C049F001C048F0D650D7CF5D
:1009900003F00101176FD7CF18F100016CEC00F0E4
:1009A00003C016F102C015F101C014F100C013F12B
:1009B000CE50CFCF03F00101176FCFCF18F1000158
:1009C0006CEC00F0D88216C11AF115C119F114C1EE
:1009D00018F113C117F103C01EF102C01DF101C0CF
:1009E0001CF100C01BF187EC00F003C093F002C0C3
:1009F00092F001C091F000C090F0CD0E0101166F91
:100A0000CC0E156F4C0E146F7C0E136F93C01AF141
:100A100092C019F191C018F190C017F1000162DD88
:100A200003C016F102C015F101C014F100C013F1AA
:100A3000D89203C01AF102C019F101C018F100C028
:100A400017F19FC01EF19EC01DF19DC01CF19CC0FE
:100A50001BF187EC00F003C097F002C096F001C0D4
:100A600095F000C094F0D88293C01AF192C019F1A9
:100A700091C018F190C017F1A3C01EF1A2C01DF1E2
:100A8000A1C01CF1A0C01BF187EC00F08F0E01018A
:100A9000166FC20E156F750E146F780E136F03C0AC
:100AA0001AF102C019F101C018F100C017F10001DC
:100AB00019DD03C09BF002C09AF001C099F000C09C
:100AC00098F00101166B156B200E146F820E136FD8
:100AD00093C01AF192C019F191C018F190C017F1AA
:100AE000000100DDD89297C01AF196C019F195C0A7
:100AF00018F194C017F103C01EF102C01DF101C02E
:100B00001CF100C01BF187EC00F003C016F102C01D
:100B100015F101C014F100C013F1D89203C01AF10D
:100B200002C019F101C018F100C017F19BC01EF1FD
:100B30009AC01DF199C01CF198C01BF187EC00F020
:100B400003C0A7F002C0A6F001C0A5F000C0A4F049
:100B5000D89283C01AF182C019F181C018F180C007
:100B600017F1A7C01EF1A6C01DF1A5C01CF1A4C0BD
:100B70001BF187EC00F003C08FF002C08EF001C0C3
:100B80008DF000C08CF00101166B156B7A0E146F9E
:100B9000880E136F8FC01AF18EC019F18DC018F135
:100BA0008CC017F1000119DD07E38F6B8E6B7A0E95
:100BB0008D6F880E8C6F14D08FC016F18EC015F11A
:100BC0008DC014F18CC013F101011A6B196B186BF5
:100BD000176B000102DD04E38F6B8E6B8D6B8C6BEA
:100BE0008FC016F18EC015F18DC014F18CC013F1B9
:100BF00031DD02C04BF001C04AF049C002F048C0EC
:100C000001F00232013202320132023201C0BEFF73
:100C100002320230300B006EBD50CF0B0010BD6EA3
:100C20004BC002F04AC001F00232013202320132FE
:100C3000023201C0BBFF02320230300B006EBA50EC
:100C4000CF0B0010BA6E77C087F076C086F075C003
:100C500085F074C084F073C08BF072C08AF071C0EC
:100C600089F070C088F097C09FF096C09EF095C044
:100C70009DF094C09CF093C0A3F092C0A2F091C0EC
:100C8000A1F090C0A0F0A19242EF00F09EAA07D080
:100C90009EAAFED7AE50040DF3504D6A4C6E9E9A3C
:100CA00042EF00F05F6A5E6AD287D29BB4BCD28BFF
:100CB000D29BB4BED28BA19C42EF00F0D36BD35138
:100CC00009080AE3036AD351C80FE96E000E032036
:100CD000EA6EEF6AD32BF3D7DC6B1200D650D66FD7
:100CE000D7CFD7F0D851D65DDA6FD951D759DB6F4E
:100CF000D7C0D9F0D6C0D8F0D2A345D0DB5303E19A
:100D0000DA513A081BE2DB5319E1DA51430816E3E2
:100D1000036ADC51C80FE96E000E0320EA6E300E44
:100D2000EF6ED890DC35036AB40FE96E000E032035
:100D3000EA6EDBC0ECFFED52DAC0EFFFDB5303E1FC
:100D4000DA515A081BE2DB5319E1DA51630816E362
:100D5000036ADC51C80FE96E000E0320EA6E310E03
:100D6000EF6ED890DC35036AB40FE96E000E0320F5
:100D7000EA6EDBC0ECFFED52DAC0EFFFDC2BDC519A
:100D80000A0801E1D285DB5303E1DA51990807E251
:100D9000DB5305E1DA519F0802E3D2838FDFF29241
:100DA00042EF00F00D0A50554C534F205245434935
:100DB0004249444F202D2D2D2D2D2D2D2D2D2D2D06
:100DC0002D2D2D2D2D2D2D2D2D2D2D2D0D0A0000F0
:100DD00042797465202575203D200D002056616CF8
:100DE0006F72203D2025750D0A00416464726573A1
:100DF00073203D20257520436F6D6D616E64203D2D
:100E00002025750D0A0042797465203D200D0000F3
:100E1000486F6C6120536F7920656C20526F626F50
:100E2000742043554943554920322E30203A4420FE
:100E300025730D0A00000D0A566F6C7461676520FA
:100E40003D202530312E3266560D0A00456D6974FD
:100E50006520756E20736F6E69646F200D00010E42
:100E6000EA6E030EE96EEF500DE0060E016E006AA9
:100E7000002EFED7012EFBD77B0E006E002EFED774
:100E8000EF2EF3D712000900F6CFEDF0F7CFEEF01A
:100E9000F5509EA8FED7AD6EEDC0F6FFEEC0F7FF91
:100EA000EC2FF1D712000900F5520DE0F6CFECF06F
:100EB000F7CFEDF0F5509EA8FED7AD6EECC0F6FF73
:100EC000EDC0F7FFF0D71200D8B204D0010EEA6EE1
:100ED0000E0EE96E006A016A026A036A01010E6B76
:100EE0000F6B106B116B0D510C110B110A112CE0D3
:100EF000200E126FD89006370737083709370E379C
:100F00000F37103711370D51115D08E10C51105D8D
:100F100005E10B510F5D02E10A510E5D0FE30A512D
:100F20000E5F0B51D8A00B3D0F5F0C51D8A00C3DAC
:100F3000105F0D51D8A00D3D115FD88000360136ED
:100F400002360336122FD6D70EC1EFFF0FC1ECFFCA
:100F500010C1ECFF11C1ECFF00011200016A026A2E
:100F6000006A036A0101015102E100511AE0100E0A
:100F7000026FD8900001FE37FF37003603360101BB
:100F80000151035C02E10051005C07E30051005E87
:100F9000D8A003060151035ED88001360236022F25
:100FA000E8D70001120001010A6B0B6B010E0C6FF8
:100FB000DA6AD96A0F6F020E0E6F010EEA6E060E24
:100FC000E96E0FC1E2FF0EC1E1FF0CC10DF1D89037
:100FD000E550EE02F3500A23F4500B230D2FF7D700
:100FE0000AC1DEFF0BC10AF10B6BD8B00B2B0E2B25
:100FF000D8B40F2B0C2B0C510508DFE10001DAEF00
:1010000008F0030E0101035F0AE3010EEA6E030E0E
:10101000E96EEF5004E001D000D0EF2EFDD70001C3
:1010200012000101026B0001FF510101025D07E2A4
:10103000FA0E036F000113DF0101022BF4D7FEC08B
:1010400003F100010CDF0101026B0151025D07E2B7
:10105000FA0E036F0001D5DF0101022BF6D700C1A4
:1010600003F10001CEDF1200D8920101096B0F0ECF
:10107000086F420E076F400E066F0D6B0C6BEDC0D4
:101080000BF1ECC00AF100011FDF03C001F102C047
:1010900000F101C0FFF000C0FEF0D8900101013363
:1010A00000330001FF33FE330A0EFE5DF06F000EC9
:1010B000FF59F16F000E010100590001F26F000E9F
:1010C000010101590001F36FD892F3C009F1F2C098
:1010D00008F1F1C007F1F0C006F101010D6B0C6BD6
:1010E000030E0B6FE80E0A6F0001EEDE01C0F5F093
:1010F00000C0F4F0F5C0FFF0F4C0FEF00101016B98
:10110000FA0E006F00012ADF01C0F9F0F5C0FFF010
:10111000F4C0FEF00101016BFA0E006F00011EDF4A
:1011200000C0FAF0D882EA6AFE0EE96EF3C009F157
:10113000F2C008F1F1C007F1F0C006F101010D6B3A
:101140000C6B030E0B6FE80E0A6F0001BDDEFFC0D3
:10115000F7F0FEC0F6F0F7C0FFF0F6C0FEF00101B8
:10116000016BFA0E006F0001F9DE01C0F8F0F7C064
:10117000FFF0F6C0FEF00101016BFA0E006F0001F6
:10118000EDDE00C0FBF00101016B006BEFC0FFF072
:10119000EEC0FEF001C105F100C104F1EFC003F1A2
:1011A000EEC002F1096B086B030E076FE80E066FC5
:1011B0000001F9D603C001F102C000F101C0FFF047
:1011C00000C0FEF0D8920101096B0F0E086F420EAD
:1011D000076F400E066F0D6B0C6BEDC00BF1ECC092
:1011E0000AF1000171DE03C005F102C004F101C083
:1011F00003F100C002F1D89201C109F100C108F168
:10120000FFC007F1FEC006F103C00DF102C00CF1F2
:1012100001C00BF100C00AF157DE01C0FDF000C0B3
:10122000FCF0FDC0FFF0FC51D8B4FD07FC07FE6FD9
:10123000FE5302E1FF5317E0FAC0FEF0F9C0FFF0E1
:10124000FBC000F1F8C001F1ECDE929A898AFAC085
:10125000FEF0F9C0FFF0FBC000F1F8C001F1E1DEE3
:10126000929A899ADED71200BB0E0101036F00012A
:10127000F6DD010EED6F870EEC6FEF6B970EEE6FE4
:10128000F3DE230E0101036F0001E9DD010EED6FB6
:10129000870EEC6FEF6BBB0EEE6FE6DEBB0E01014F
:1012A000036F0001DCDD010EED6F870EEC6FEF6B5D
:1012B000BB0EEE6FD9DE010EED6FB80EEC6FEF6B6B
:1012C000BB0EEE6FD1DEBB0E0101036F0001C7DD67
:1012D000010EED6FD20EEC6FEF6BBB0EEE6FC4DE46
:1012E000BB0E0101036F0001BADD010EED6FED0EC3
:1012F000EC6FEF6BBB0EEE6FB7DE030EEC6FBB0E49
:101300000101036F0001ABDDEC2FF9D7010E0101E4
:10131000036F0001A4DD030EED6FDB0EEC6FEF6BCE
:10132000BB0EEE6FA1DEA7EF0DF0F951B608F96F15
:10133000036AFAC0FDF0FA8FD890FA33FB33FC331E
:101340000332023201320032F92FF6D7FDAF0BD053
:10135000001E011E021E031E002AD8B4012AD8B4A2
:10136000022AD8B4032AE5EF09F0E950F16FF051F1
:10137000F36F22E0196AF2BE198EF29EEFC016F1E9
:10138000EEC015F1EDC014F1ECC013F101011A6BC0
:10139000196B200E186F820E176F000172EC02F0AD
:1013A00019BEF28E03C0EFF002C0EEF001C0EDF006
:1013B00000C0ECF0F32FDED7EFC0FCF0EEC0FBF086
:1013C000EDC0FAF0ECC0F9F0B0D703C0EFF002C006
:1013D000EEF001C0EDF000C0ECF0EFAF0DD0F10782
:1013E000F18BEC1FED1FEE1FEF1FEC2BD8B4ED2B94
:1013F000D8B4EE2BD8B4EF2B3B0EF86F9A0EF76FE4
:10140000CA0EF66FF56B0A0EF36FF051D8B4F12BDC
:10141000D882EA6AEC0EE96EEFC009F1EEC008F17D
:10142000EDC007F1ECC006F1F8C00DF1F7C00CF10A
:10143000F6C00BF1F5C00AF147DD015000520FE193
:10144000F029F35D0CE0F1510CE00F0BF35D01E0CE
:101450003BE2F1BF39D0F1BD04D0200E30D0200ED8
:10146000F117F1AB0DD0F19BF051D8A4F10700506A
:10147000F16F2D0E9EA8FED7AD6EF151006EF16B8F
:10148000F051F35D0BE10050F16F2E0E9EA8FED7D8
:10149000AD6EF151006E200EF117000E300EF1AB63
:1014A0000ED0F19BF051D8A4F1070050F16F2D0E32
:1014B0009EA8FED7AD6EF151006EF16B300E002686
:1014C00000509EA8FED7AD6ED892F8C009F1F7C0C3
:1014D00008F1F6C007F1F5C006F101010D6B0C6BC8
:1014E0000B6B0A0E0A6F0001EFDC03C0F8F002C0BC
:1014F000F7F001C0F6F000C0F5F0F32F89D73AEF0E
:101500000EF0BB0E0101036F0001A9DC010EED6FAF
:10151000D20EEC6FEF6BBB0EEE6FA6DDBB0E0101C2
:10152000036F00019CDC010EED6FED0EEC6FEF6BB5
:10153000BB0EEE6F99DD030EEC6FBB0E0101036F66
:1015400000018DDCEC2FF9D7010E0101036F0001C2
:1015500086DC030EED6FDB0EEC6FEF6BBB0EEE6FF8
:1015600083DD5BEF0EF0D36BD35101083CE3036ADC
:10157000D351E60FE96E000E0320EA6EEF6AD46BDA
:10158000D45104082EE3D351050DF350D425036A3A
:10159000C80FE96E000E0320EA6EEF5031081FE11C
:1015A000036AD351E60F016E000E032203C0EDF073
:1015B000036AD351E60FE96E000E0320EA6EEFCF07
:1015C000EEF0036AD451DE0FE96E000E0320EA6EDE
:1015D000EF50EE11EDC0EAFF01C0E9FFEF6ED42B32
:1015E000CFD7D32BC1D7E6C0E9F0E7C0E8F01200AF
:1015F000BB0E0101036F000132DC010EED6F870E9F
:10160000EC6FEF6B970EEE6F2FDD230E0101036F72
:10161000000125DC010EED6F870EEC6FEF6BBB0E4A
:10162000EE6F22DDBB0E0101036F000118DC010E1D
:10163000ED6F870EEC6FEF6BBB0EEE6F15DD010EDD
:10164000ED6FB80EEC6FEF6BBB0EEE6F0DDDBB0EEA
:101650000101036F000103DCC80EB56E9FEF0EF0B1
:10166000000E016EC250C30B0110C26E210E006E3F
:10167000002EFED7C282C2B2FED7C3CF38F0C4CF8D
:1016800039F0196AF2BE198EF29E39C018F138C0CD
:1016900017F16CEC00F019BEF28E196AF2BE198EC9
:1016A000F29E330E0101166F156F530E146F800EEC
:1016B000136F03C01AF102C019F101C018F100C084
:1016C00017F1000172EC02F019BEF28E03C0EFF0C8
:1016D00002C0EEF001C0EDF000C0ECF0196AF2BEFD
:1016E000198EF29E03C01AF102C019F101C018F15F
:1016F00000C017F101011E6B1D6B1C6B890E1B6F67
:101700000001C3EC01F019BEF28E03C067F002C005
:1017100066F001C065F000C064F0196AF2BE198E6F
:10172000F29E330E0101166F156F146F800E136F4A
:1017300067C01AF166C019F165C018F164C017F1ED
:101740000001EDEC02F019BEF28E01E203E14F6AF6
:101750000A0E4E6E196AF2BE198EF29E330E010108
:10176000166F156F130E146F800E136F67C01AF18A
:1017700066C019F165C018F164C017F10001EDEC05
:1017800002F019BEF28E01E21CE1196AF2BE198E56
:10179000F29E67C016F166C015F165C014F164C011
:1017A00013F1330E01011A6F196F186F800E176F46
:1017B0000001EDEC02F019BEF28E03E34F6A0F0E4A
:1017C0004E6E196AF2BE198EF29E67C016F166C09F
:1017D00015F165C014F164C013F1330E01011A6FE5
:1017E000196F130E186F800E176F0001EDEC02F0E9
:1017F00019BEF28E03E34F6A140E4E6EC1EF0CF069
:10180000000E0509CA6EFF0ECB6EA80ED56E830EB4
:10181000CD6EB50EB16ED76AD66ACF6ACE6A850E26
:10182000B36EED0EB26EA0829D9AF298736A726AE0
:10183000716A706A776A766A756A746A7B6A7A6AAC
:10184000796A786A836B826B816B806B8F6B8E6B2E
:101850008D6B8C6B876B866B856B846B8B6B8A6BEC
:10186000896B886B9F6B9E6B9D6B9C6BA36BA26B54
:10187000A16BA06B496A486A4B6A4A6AAF6BAE6B50
:10188000AD6BAC6B556A546A576A566A516A506AB6
:10189000536A526A596A586A5B6A5A6A49C002F0C6
:1018A00048C001F00232013202320132023201C07C
:1018B000BEFF02320230300B006EBD50CF0B001065
:1018C000BD6E4BC002F04AC001F00232013202325A
:1018D0000132023201C0BBFF02320230300B006E17
:1018E000BA50CF0B0010BA6E8B940C0EBD6E8A9658
:1018F000BA6E010E3D6E2C0E3C6E010E3F6E2C0E2C
:101900003E6EC00EF212D2AD30D0AB6BAA6B200E81
:10191000A96F820EA86FD650D7CF03F0EC6FD750C7
:10192000ED6F3D5C04E305E1EC513C5C02E2000E2E
:1019300001D0010EEC6FCE50CFCF03F0ED6FCF5042
:10194000EE6F3F5C04E305E1ED513E5C02E2000E08
:1019500001D0010EEC11DFE1F00EBD16BA168A9629
:101960008B9481500F0B8A6E11D0020EEC6FA50E76
:101970000101036F00012FEC07F0EC2FF8D7A092C4
:101980006FD6F00EBD16BA168B948A96D650EC6FB1
:101990003C50EC5D406E3D50D758416ECE50EC6FE0
:1019A0003E50EC5D426E3F50CF58436E1BC01AF064
:1019B000850ECD6E860ED56EF288C00EF212120024
:1019C000F86AD09E078EB886560EAF6E000EB06EC7
:1019D000A60EAC6E900EAB6E000000001A6A1B6A79
:1019E000456A446A476A466A4D6A4C6A4F6A4E6A5B
:1019F000516A506A536A526A556A546A576A566AFB
:101A0000596A586A5B6A5A6A5D6A5C6A5F6A5E6AAA
:101A1000AB6BAA6BA96BA86BAF6BAE6BAD6BAC6B12
:101A2000B36BB26BB16BB06BD291D293DC6BD295CE
:101A3000DD6B010EE86FE96BD297D299EB6BEA6B25
:101A4000C150C00B0F09C16E070EB46E1C6A1D6A2F
:101A5000B46BB56B010EDE6F020EDF6F040EE06F2C
:101A6000080EE16F100EE26F200EE36F400EE46F80
:101A7000800EE56FE66BE76BF29CF29EF2BEFDD73F
:101A8000C150C00B0B09C16EC050C00B0209C06E23
:101A9000C08EC280C66AD190850ECD6E000ECA6E11
:101AA000000ECB6EB16A070EB46E9250926E100E9D
:101AB000006E002EFED70000B450A19CC80EB56E7B
:101AC000F18E860ED56E1B0E926E010E936E810EF8
:101AD000946E896A8A6A8B6A020EEC6FFA0E0101B3
:101AE000036F00012FEC07F0EC2FF8D70D0E9EA826
:101AF000FED7AD6E0A0E9EA8FED7AD6E100EF66E26
:101B00000E0EF76E200EEC6F43EC07F0D20EF66E61
:101B1000000EF76E53EC07F00D0E9EA8FED7AD6ECB
:101B20000A0E9EA8FED7AD6EF19CD291D293D295AB
:101B3000196AF2BE198EF29E5EEC06F019BEF28EA4
:101B4000356A9EBA352A352C03D034EF09F0356A50
:101B5000F7D7A092B50EB16EB36AB26A9D9AF288B9
:101B60000C0E016EC250C30B0110C26E210E006E2E
:101B7000002EFED7C282C2B2FED7C3CF3AF0C4CF86
:101B80003BF0196AF2BE198EF29E3BC018F13AC0C2
:101B900017F16CEC00F019BEF28E196AF2BE198EC4
:101BA000F29E330E0101166F156F530E146F800EE7
:101BB000136F03C01AF102C019F101C018F100C07F
:101BC00017F1000172EC02F019BEF28E03C0EFF0C3
:101BD00002C0EEF001C0EDF000C0ECF0196AF2BEF8
:101BE000198EF29E03C01AF102C019F101C018F15A
:101BF00000C017F101011E6B1D6B1C6B890E1B6F62
:101C00000001C3EC01F019BEF28E196AF2BE198E02
:101C1000F29E0101166B156B146B800E136F03C0DF
:101C20001AF102C019F101C018F100C017F100014A
:101C300072EC02F019BEF28E03C06BF002C06AF0C3
:101C400001C069F000C068F0360EF66E0E0EF76E39
:101C50000C0EEC6F43EC07F0C90EE96E6BC0EFF0B1
:101C60006AC0EEF069C0EDF068C0ECF0020EF06FF3
:101C7000B5EF09F0480EF66E0E0EF76E030EEC6F20
:101C800043EC07F0C00EF212A1925F6A5E6AA1A255
:101C900057D0A192010E5E26000E5F225F50000811
:101CA0004FE2FF0A03E15E501D084AE2F29CF29EF9
:101CB000F2BEFDD726D48F0EB56E060EB46E9250CE
:101CC0000309926E100E006E002EFED70000B45075
:101CD000A19CF298A08CC00EF212D2B91FD0D3CF23
:101CE00000F0D39E030000C0D3FF0000A09CA60E0E
:101CF000006E002EFED70000F288D2A5FED733DC9E
:101D0000E751070805E1D2A703D0D289F29804D0A1
:101D1000F298A08CD297D299D295DFD7D295D2974C
:101D2000D299A09CB56A070EB46E9250926E100EB6
:101D3000006E002EFED70000B450A19C59D4F2884A
:101D4000D2A5C4D15F6A5E6AF29CF29EF2BEFDD754
:101D5000D29509DCE7510708D8A4AED1E6B97CD00A
:101D6000020EE65DF90FD8B076D0070F68EF10F0DD
:101D7000D29D81500F0B60098A6E4F6A140E4E6E11
:101D80008A823EDD8A9267D0D29D81500F0B9009E6
:101D90008A6E4F6A140E4E6E8A8232DD8A925BD052
:101DA000D29D81500F0BA0098A6E4F6A140E4E6EA1
:101DB0008A8226DD8A924FD0D29D81500F0B500926
:101DC0008A6E4F6A140E4E6E8A821ADD8A9243D052
:101DD0004C0EF66E0E0EF76E53EC07F0010EED6F23
:101DE000870EEC6FEF6BBB0EEE6F34EC08F0020E5B
:101DF000ED6F0B0EEC6FEF6BBB0EEE6F34EC08F07B
:101E0000020EED6F930EEC6FEF6BBB0EEE6F34ECCA
:101E100008F0030EED6F0F0EEC6FEF6BBB0EEE6F65
:101E200034EC08F0BB0E0101036F00012FEC07F04A
:101E3000020EED6F930EEC6FEF6BBB0EEE6F34EC9A
:101E400008F0030EED6F0F0EEC6F040EEF6F650ED2
:101E5000EE6F34EC08F030D1E699E651050A04E063
:101E60000C0AD8B4A7D0DAD0D36BDD51D35DD8B08B
:101E700083D0036AD3511C0FE96E000E0320EA6E73
:101E8000EF50020A09E00A0A12E00C0A1BE0020AFB
:101E900023E0050A2CE069D0020E1B6ED28D815022
:101EA0000F0B60098A6E8A82ABDC8A9263D0080EBF
:101EB0001B6ED28D81500F0B90098A6E8A82A0DC36
:101EC0008A9258D0040E1B6ED28D81500F0B500990
:101ED0008A6E8A8295DC4ED0060E1B6ED28D8150A2
:101EE0000F0BA0098A6E8A828BDC8A9243D0010E86
:101EF000ED6F870EEC6FEF6BBB0EEE6F34EC08F0FE
:101F0000020EED6F0B0EEC6FEF6BBB0EEE6F34EC51
:101F100008F0020EED6F930EEC6FEF6BBB0EEE6FE1
:101F200034EC08F0030EED6F0F0EEC6FEF6BBB0E91
:101F3000EE6F34EC08F0BB0E0101036F00012FECD3
:101F400007F0020EED6F930EEC6FEF6BBB0EEE6FB2
:101F500034EC08F0030EED6F0F0EEC6F040EEF6F14
:101F6000650EEE6F34EC08F005D0A60E006E002E64
:101F7000FED70000D32B79D7020EED6F930EEC6FD6
:101F8000EF6B980EEE6F34EC08F0230E0101036F37
:101F900000012FEC07F0020EED6F930EEC6F020EB6
:101FA000EF6F320EEE6F34EC08F0456A446A476A10
:101FB000466A82D0D36BD35118080AE3036AD3511F
:101FC0001C0FE96E000E0320EA6EEF6AD32BF3D7E5
:101FD000DD6B030EED6FE80EEC6FEF6BB40EEE6F82
:101FE00034EC08F0020EED6F580EEC6FEF6BF00E54
:101FF000EE6F34EC08F0010EED6F180EEC6FEF6B26
:10200000880EEE6F34EC08F0050EED6FDC0EEC6F11
:10201000EF6BC80EEE6F34EC08F04ED0036ADD5162
:102020001C0FE96E000E0320EA6EE6C0EFFF036AA4
:10203000DD511C0FE96E000E0320EA6E020EEF5C0C
:10204000F90F39E2070F7CEF10F0010EED6F060E6D
:10205000EC6F010EEF6FF40EEE6F34EC08F02BD046
:10206000010EED6F4A0EEC6F010EEF6FF40EEE6F86
:1020700034EC08F020D0010EED6FB80EEC6F010EBD
:10208000EF6FF40EEE6F34EC08F015D0020EED6F2A
:102090000B0EEC6F010EEF6FF40EEE6F34EC08F0E8
:1020A0000AD0020EED6F930EEC6F010EEF6FF40E7F
:1020B000EE6F34EC08F0DD2B196AF2BE198EF29E39
:1020C0005EEC06F019BEF28EC00EF212E0D50300EF
:1020D000E824F76AF736EB0FF66E200EF7220A00B7
:1020E000F550FA6E0800F550F96E701DD01DA01D58
:1020F000561EB81D561E881DE824F76AF736130FC2
:10210000F66E210EF7220A00F550FA6E0800F5501F
:10211000F96E4A20A2207620B6208C20B6206020BE
:020000040030CA
:0E00000000C2180E000081000FC00FE00F407C
:00000001FF
;PIC18F2520
;CRC=F2CC  CREATED="20-Nov-18 23:50"
